{
  "_format": "hh-sol-artifact-1",
  "contractName": "TestStorages",
  "sourceName": "contracts/TestStorages.sol",
  "abi": [
    {
      "inputs": [
        {
          "internalType": "uint256",
          "name": "_storageNumber",
          "type": "uint256"
        }
      ],
      "name": "getValueTest",
      "outputs": [
        {
          "internalType": "uint256",
          "name": "",
          "type": "uint256"
        }
      ],
      "stateMutability": "view",
      "type": "function"
    },
    {
      "inputs": [
        {
          "internalType": "address",
          "name": "_StorageFactoryAddress",
          "type": "address"
        }
      ],
      "name": "setAddresses",
      "outputs": [],
      "stateMutability": "nonpayable",
      "type": "function"
    },
    {
      "inputs": [],
      "name": "storageFactory",
      "outputs": [
        {
          "internalType": "contract ISPFactory",
          "name": "",
          "type": "address"
        }
      ],
      "stateMutability": "view",
      "type": "function"
    },
    {
      "inputs": [
        {
          "internalType": "uint256",
          "name": "_storageNumber",
          "type": "uint256"
        },
        {
          "internalType": "uint256",
          "name": "_value",
          "type": "uint256"
        }
      ],
      "name": "storeTest",
      "outputs": [],
      "stateMutability": "nonpayable",
      "type": "function"
    }
  ],
  "bytecode": "0x608060405234801561001057600080fd5b50610623806100206000396000f3fe608060405234801561001057600080fd5b506004361061004c5760003560e01c8063722d2dc3146100515780637c2beebc1461006d57806381d3c4351461009d5780639a109129146100b9575b600080fd5b61006b600480360381019061006691906103a4565b6100d7565b005b610087600480360381019061008291906103e4565b6101e6565b6040516100949190610420565b60405180910390f35b6100b760048036038101906100b29190610499565b610302565b005b6100c1610345565b6040516100ce9190610525565b60405180910390f35b60008060009054906101000a900473ffffffffffffffffffffffffffffffffffffffff1673ffffffffffffffffffffffffffffffffffffffff166365fd4772846040518263ffffffff1660e01b81526004016101339190610420565b602060405180830381865afa158015610150573d6000803e3d6000fd5b505050506040513d601f19601f82011682018060405250810190610174919061057e565b90508073ffffffffffffffffffffffffffffffffffffffff16636057361d836040518263ffffffff1660e01b81526004016101af9190610420565b600060405180830381600087803b1580156101c957600080fd5b505af11580156101dd573d6000803e3d6000fd5b50505050505050565b60008060008054906101000a900473ffffffffffffffffffffffffffffffffffffffff1673ffffffffffffffffffffffffffffffffffffffff166365fd4772846040518263ffffffff1660e01b81526004016102429190610420565b602060405180830381865afa15801561025f573d6000803e3d6000fd5b505050506040513d601f19601f82011682018060405250810190610283919061057e565b905060008173ffffffffffffffffffffffffffffffffffffffff1663209652556040518163ffffffff1660e01b8152600401602060405180830381865afa1580156102d2573d6000803e3d6000fd5b505050506040513d601f19601f820116820180604052508101906102f691906105c0565b90508092505050919050565b806000806101000a81548173ffffffffffffffffffffffffffffffffffffffff021916908373ffffffffffffffffffffffffffffffffffffffff16021790555050565b60008054906101000a900473ffffffffffffffffffffffffffffffffffffffff1681565b600080fd5b6000819050919050565b6103818161036e565b811461038c57600080fd5b50565b60008135905061039e81610378565b92915050565b600080604083850312156103bb576103ba610369565b5b60006103c98582860161038f565b92505060206103da8582860161038f565b9150509250929050565b6000602082840312156103fa576103f9610369565b5b60006104088482850161038f565b91505092915050565b61041a8161036e565b82525050565b60006020820190506104356000830184610411565b92915050565b600073ffffffffffffffffffffffffffffffffffffffff82169050919050565b60006104668261043b565b9050919050565b6104768161045b565b811461048157600080fd5b50565b6000813590506104938161046d565b92915050565b6000602082840312156104af576104ae610369565b5b60006104bd84828501610484565b91505092915050565b6000819050919050565b60006104eb6104e66104e18461043b565b6104c6565b61043b565b9050919050565b60006104fd826104d0565b9050919050565b600061050f826104f2565b9050919050565b61051f81610504565b82525050565b600060208201905061053a6000830184610516565b92915050565b600061054b8261045b565b9050919050565b61055b81610540565b811461056657600080fd5b50565b60008151905061057881610552565b92915050565b60006020828403121561059457610593610369565b5b60006105a284828501610569565b91505092915050565b6000815190506105ba81610378565b92915050565b6000602082840312156105d6576105d5610369565b5b60006105e4848285016105ab565b9150509291505056fea264697066735822122053cf4d803ae493e25cca70ad200ff4cae6ed2f6b44c9f4fe2a2dcfc4a2c15d0664736f6c634300080b0033",
  "linkReferences": {},
  "deployedLinkReferences": {}
}