{
  "_format": "hh-sol-artifact-1",
  "contractName": "SPFactory",
  "sourceName": "contracts/SPFactory.sol",
  "abi": [
    {
      "inputs": [],
      "name": "allStorages",
      "outputs": [
        {
          "internalType": "contract Storage[]",
          "name": "storage_",
          "type": "address[]"
        }
      ],
      "stateMutability": "view",
      "type": "function"
    },
    {
      "inputs": [
        {
          "internalType": "address",
          "name": "asset",
          "type": "address"
        },
        {
          "internalType": "address",
          "name": "stabilityPool",
          "type": "address"
        }
      ],
      "name": "createNewSP",
      "outputs": [],
      "stateMutability": "nonpayable",
      "type": "function"
    },
    {
      "inputs": [
        {
          "internalType": "uint256",
          "name": "_number",
          "type": "uint256"
        }
      ],
      "name": "createNewStorage",
      "outputs": [],
      "stateMutability": "nonpayable",
      "type": "function"
    },
    {
      "inputs": [
        {
          "internalType": "uint256",
          "name": "_position",
          "type": "uint256"
        }
      ],
      "name": "getStorage",
      "outputs": [
        {
          "internalType": "contract IStorage",
          "name": "",
          "type": "address"
        }
      ],
      "stateMutability": "view",
      "type": "function"
    },
    {
      "inputs": [
        {
          "internalType": "address",
          "name": "asset",
          "type": "address"
        }
      ],
      "name": "removeSP",
      "outputs": [],
      "stateMutability": "nonpayable",
      "type": "function"
    }
  ],
  "bytecode": "0x608060405234801561001057600080fd5b50610864806100206000396000f3fe608060405234801561001057600080fd5b50600436106100575760003560e01c80635fa152091461005c57806365fd477214610078578063851ff737146100a8578063bb73e63f146100c6578063d1004c98146100e2575b600080fd5b61007660048036038101906100719190610401565b6100fe565b005b610092600480360381019061008d9190610401565b6101fd565b60405161009f91906104ad565b60405180910390f35b6100b0610244565b6040516100bd9190610598565b60405180910390f35b6100e060048036038101906100db91906105f8565b6102d2565b005b6100fc60048036038101906100f79190610638565b610354565b005b600060405161010c906103b9565b604051809103906000f080158015610128573d6000803e3d6000fd5b5090508073ffffffffffffffffffffffffffffffffffffffff16636057361d836040518263ffffffff1660e01b81526004016101649190610674565b600060405180830381600087803b15801561017e57600080fd5b505af1158015610192573d6000803e3d6000fd5b505050506000819080600181540180825580915050600190039060005260206000200160009091909190916101000a81548173ffffffffffffffffffffffffffffffffffffffff021916908373ffffffffffffffffffffffffffffffffffffffff1602179055505050565b60008082815481106102125761021161068f565b5b9060005260206000200160009054906101000a900473ffffffffffffffffffffffffffffffffffffffff169050919050565b606060008054806020026020016040519081016040528092919081815260200182805480156102c857602002820191906000526020600020905b8160009054906101000a900473ffffffffffffffffffffffffffffffffffffffff1673ffffffffffffffffffffffffffffffffffffffff168152602001906001019080831161027e575b5050505050905090565b80600160008473ffffffffffffffffffffffffffffffffffffffff1673ffffffffffffffffffffffffffffffffffffffff16815260200190815260200160002060006101000a81548173ffffffffffffffffffffffffffffffffffffffff021916908373ffffffffffffffffffffffffffffffffffffffff1602179055505050565b600160008273ffffffffffffffffffffffffffffffffffffffff1673ffffffffffffffffffffffffffffffffffffffff16815260200190815260200160002060006101000a81549073ffffffffffffffffffffffffffffffffffffffff021916905550565b610170806106bf83390190565b600080fd5b6000819050919050565b6103de816103cb565b81146103e957600080fd5b50565b6000813590506103fb816103d5565b92915050565b600060208284031215610417576104166103c6565b5b6000610425848285016103ec565b91505092915050565b600073ffffffffffffffffffffffffffffffffffffffff82169050919050565b6000819050919050565b600061047361046e6104698461042e565b61044e565b61042e565b9050919050565b600061048582610458565b9050919050565b60006104978261047a565b9050919050565b6104a78161048c565b82525050565b60006020820190506104c2600083018461049e565b92915050565b600081519050919050565b600082825260208201905092915050565b6000819050602082019050919050565b60006104ff8261047a565b9050919050565b61050f816104f4565b82525050565b60006105218383610506565b60208301905092915050565b6000602082019050919050565b6000610545826104c8565b61054f81856104d3565b935061055a836104e4565b8060005b8381101561058b5781516105728882610515565b975061057d8361052d565b92505060018101905061055e565b5085935050505092915050565b600060208201905081810360008301526105b2818461053a565b905092915050565b60006105c58261042e565b9050919050565b6105d5816105ba565b81146105e057600080fd5b50565b6000813590506105f2816105cc565b92915050565b6000806040838503121561060f5761060e6103c6565b5b600061061d858286016105e3565b925050602061062e858286016105e3565b9150509250929050565b60006020828403121561064e5761064d6103c6565b5b600061065c848285016105e3565b91505092915050565b61066e816103cb565b82525050565b60006020820190506106896000830184610665565b92915050565b7f4e487b7100000000000000000000000000000000000000000000000000000000600052603260045260246000fdfe608060405234801561001057600080fd5b50610150806100206000396000f3fe608060405234801561001057600080fd5b50600436106100365760003560e01c8063209652551461003b5780636057361d14610059575b600080fd5b610043610075565b60405161005091906100a1565b60405180910390f35b610073600480360381019061006e91906100ed565b61007e565b005b60008054905090565b8060008190555050565b6000819050919050565b61009b81610088565b82525050565b60006020820190506100b66000830184610092565b92915050565b600080fd5b6100ca81610088565b81146100d557600080fd5b50565b6000813590506100e7816100c1565b92915050565b600060208284031215610103576101026100bc565b5b6000610111848285016100d8565b9150509291505056fea264697066735822122070e51acacf9713e01eb5a1424d326711a93a97781fd84e3c545d7ff6c0fdce6764736f6c634300080b0033a2646970667358221220c75ab503354d6307fc59ee796e8828bd816fc84d7577ccf5e195cc0c2965d18864736f6c634300080b0033",
  "linkReferences": {},
  "deployedLinkReferences": {}
}