{
  "_format": "hh-sol-artifact-1",
  "contractName": "ERC20Test",
  "sourceName": "contracts/TestContracts/ERC20Test.sol",
  "abi": [
    {
      "inputs": [],
      "stateMutability": "nonpayable",
      "type": "constructor"
    },
    {
      "anonymous": false,
      "inputs": [
        {
          "indexed": true,
          "internalType": "address",
          "name": "owner",
          "type": "address"
        },
        {
          "indexed": true,
          "internalType": "address",
          "name": "spender",
          "type": "address"
        },
        {
          "indexed": false,
          "internalType": "uint256",
          "name": "value",
          "type": "uint256"
        }
      ],
      "name": "Approval",
      "type": "event"
    },
    {
      "anonymous": false,
      "inputs": [
        {
          "indexed": true,
          "internalType": "address",
          "name": "from",
          "type": "address"
        },
        {
          "indexed": true,
          "internalType": "address",
          "name": "to",
          "type": "address"
        },
        {
          "indexed": false,
          "internalType": "uint256",
          "name": "value",
          "type": "uint256"
        }
      ],
      "name": "Transfer",
      "type": "event"
    },
    {
      "inputs": [],
      "name": "DOMAIN_SEPARATOR",
      "outputs": [
        {
          "internalType": "bytes32",
          "name": "",
          "type": "bytes32"
        }
      ],
      "stateMutability": "view",
      "type": "function"
    },
    {
      "inputs": [
        {
          "internalType": "address",
          "name": "owner",
          "type": "address"
        },
        {
          "internalType": "address",
          "name": "spender",
          "type": "address"
        }
      ],
      "name": "allowance",
      "outputs": [
        {
          "internalType": "uint256",
          "name": "",
          "type": "uint256"
        }
      ],
      "stateMutability": "view",
      "type": "function"
    },
    {
      "inputs": [
        {
          "internalType": "address",
          "name": "spender",
          "type": "address"
        },
        {
          "internalType": "uint256",
          "name": "amount",
          "type": "uint256"
        }
      ],
      "name": "approve",
      "outputs": [
        {
          "internalType": "bool",
          "name": "",
          "type": "bool"
        }
      ],
      "stateMutability": "nonpayable",
      "type": "function"
    },
    {
      "inputs": [
        {
          "internalType": "address",
          "name": "account",
          "type": "address"
        }
      ],
      "name": "balanceOf",
      "outputs": [
        {
          "internalType": "uint256",
          "name": "",
          "type": "uint256"
        }
      ],
      "stateMutability": "view",
      "type": "function"
    },
    {
      "inputs": [],
      "name": "decimals",
      "outputs": [
        {
          "internalType": "uint8",
          "name": "",
          "type": "uint8"
        }
      ],
      "stateMutability": "view",
      "type": "function"
    },
    {
      "inputs": [
        {
          "internalType": "address",
          "name": "spender",
          "type": "address"
        },
        {
          "internalType": "uint256",
          "name": "subtractedValue",
          "type": "uint256"
        }
      ],
      "name": "decreaseAllowance",
      "outputs": [
        {
          "internalType": "bool",
          "name": "",
          "type": "bool"
        }
      ],
      "stateMutability": "nonpayable",
      "type": "function"
    },
    {
      "inputs": [
        {
          "internalType": "address",
          "name": "spender",
          "type": "address"
        },
        {
          "internalType": "uint256",
          "name": "addedValue",
          "type": "uint256"
        }
      ],
      "name": "increaseAllowance",
      "outputs": [
        {
          "internalType": "bool",
          "name": "",
          "type": "bool"
        }
      ],
      "stateMutability": "nonpayable",
      "type": "function"
    },
    {
      "inputs": [
        {
          "internalType": "address",
          "name": "to",
          "type": "address"
        },
        {
          "internalType": "uint256",
          "name": "amount",
          "type": "uint256"
        }
      ],
      "name": "mint",
      "outputs": [],
      "stateMutability": "nonpayable",
      "type": "function"
    },
    {
      "inputs": [],
      "name": "name",
      "outputs": [
        {
          "internalType": "string",
          "name": "",
          "type": "string"
        }
      ],
      "stateMutability": "view",
      "type": "function"
    },
    {
      "inputs": [
        {
          "internalType": "address",
          "name": "owner",
          "type": "address"
        }
      ],
      "name": "nonces",
      "outputs": [
        {
          "internalType": "uint256",
          "name": "",
          "type": "uint256"
        }
      ],
      "stateMutability": "view",
      "type": "function"
    },
    {
      "inputs": [
        {
          "internalType": "address",
          "name": "owner",
          "type": "address"
        },
        {
          "internalType": "address",
          "name": "spender",
          "type": "address"
        },
        {
          "internalType": "uint256",
          "name": "value",
          "type": "uint256"
        },
        {
          "internalType": "uint256",
          "name": "deadline",
          "type": "uint256"
        },
        {
          "internalType": "uint8",
          "name": "v",
          "type": "uint8"
        },
        {
          "internalType": "bytes32",
          "name": "r",
          "type": "bytes32"
        },
        {
          "internalType": "bytes32",
          "name": "s",
          "type": "bytes32"
        }
      ],
      "name": "permit",
      "outputs": [],
      "stateMutability": "nonpayable",
      "type": "function"
    },
    {
      "inputs": [
        {
          "internalType": "uint8",
          "name": "_decimals",
          "type": "uint8"
        }
      ],
      "name": "setDecimals",
      "outputs": [],
      "stateMutability": "nonpayable",
      "type": "function"
    },
    {
      "inputs": [],
      "name": "symbol",
      "outputs": [
        {
          "internalType": "string",
          "name": "",
          "type": "string"
        }
      ],
      "stateMutability": "view",
      "type": "function"
    },
    {
      "inputs": [],
      "name": "totalSupply",
      "outputs": [
        {
          "internalType": "uint256",
          "name": "",
          "type": "uint256"
        }
      ],
      "stateMutability": "view",
      "type": "function"
    },
    {
      "inputs": [
        {
          "internalType": "address",
          "name": "to",
          "type": "address"
        },
        {
          "internalType": "uint256",
          "name": "amount",
          "type": "uint256"
        }
      ],
      "name": "transfer",
      "outputs": [
        {
          "internalType": "bool",
          "name": "",
          "type": "bool"
        }
      ],
      "stateMutability": "nonpayable",
      "type": "function"
    },
    {
      "inputs": [
        {
          "internalType": "address",
          "name": "sender",
          "type": "address"
        },
        {
          "internalType": "address",
          "name": "recipient",
          "type": "address"
        },
        {
          "internalType": "uint256",
          "name": "amount",
          "type": "uint256"
        }
      ],
      "name": "transferFrom",
      "outputs": [
        {
          "internalType": "bool",
          "name": "",
          "type": "bool"
        }
      ],
      "stateMutability": "nonpayable",
      "type": "function"
    }
  ],
  "bytecode": "0x6101406040526012600760006101000a81548160ff021916908360ff1602179055503480156200002e57600080fd5b506040518060400160405280600381526020017f5453540000000000000000000000000000000000000000000000000000000000815250806040518060400160405280600181526020017f31000000000000000000000000000000000000000000000000000000000000008152506040518060400160405280600881526020017f45524320546573740000000000000000000000000000000000000000000000008152506040518060400160405280600381526020017f545354000000000000000000000000000000000000000000000000000000000081525081600390805190602001906200012092919062000231565b5080600490805190602001906200013992919062000231565b50505060008280519060200120905060008280519060200120905060007f8b73c3c69bb8fe3d512ecc4cf759cc79239f7b179b0ffacaa9a75d522b39400f90508260e081815250508161010081815250504660a08181525050620001a5818484620001f560201b60201c565b608081815250503073ffffffffffffffffffffffffffffffffffffffff1660c08173ffffffffffffffffffffffffffffffffffffffff16815250508061012081815250505050505050506200041e565b60008383834630604051602001620002129594939291906200035c565b6040516020818303038152906040528051906020012090509392505050565b8280546200023f90620003e8565b90600052602060002090601f016020900481019282620002635760008555620002af565b82601f106200027e57805160ff1916838001178555620002af565b82800160010185558215620002af579182015b82811115620002ae57825182559160200191906001019062000291565b5b509050620002be9190620002c2565b5090565b5b80821115620002dd576000816000905550600101620002c3565b5090565b6000819050919050565b620002f681620002e1565b82525050565b6000819050919050565b6200031181620002fc565b82525050565b600073ffffffffffffffffffffffffffffffffffffffff82169050919050565b6000620003448262000317565b9050919050565b620003568162000337565b82525050565b600060a082019050620003736000830188620002eb565b620003826020830187620002eb565b620003916040830186620002eb565b620003a0606083018562000306565b620003af60808301846200034b565b9695505050505050565b7f4e487b7100000000000000000000000000000000000000000000000000000000600052602260045260246000fd5b600060028204905060018216806200040157607f821691505b60208210811415620004185762000417620003b9565b5b50919050565b60805160a05160c05160e051610100516101205161213e6200046e6000396000610d5e01526000610da001526000610d7f01526000610cb401526000610d0a01526000610d33015261213e6000f3fe608060405234801561001057600080fd5b50600436106101005760003560e01c806370a0823111610097578063a457c2d711610066578063a457c2d7146102c3578063a9059cbb146102f3578063d505accf14610323578063dd62ed3e1461033f57610100565b806370a08231146102295780637a1395aa146102595780637ecebe001461027557806395d89b41146102a557610100565b8063313ce567116100d3578063313ce567146101a15780633644e515146101bf57806339509351146101dd57806340c10f191461020d57610100565b806306fdde0314610105578063095ea7b31461012357806318160ddd1461015357806323b872dd14610171575b600080fd5b61010d61036f565b60405161011a91906113e3565b60405180910390f35b61013d6004803603810190610138919061149e565b610401565b60405161014a91906114f9565b60405180910390f35b61015b610424565b6040516101689190611523565b60405180910390f35b61018b6004803603810190610186919061153e565b61042e565b60405161019891906114f9565b60405180910390f35b6101a9610446565b6040516101b691906115ad565b60405180910390f35b6101c761045d565b6040516101d491906115e1565b60405180910390f35b6101f760048036038101906101f2919061149e565b61046c565b60405161020491906114f9565b60405180910390f35b6102276004803603810190610222919061149e565b6104a3565b005b610243600480360381019061023e91906115fc565b6104b1565b6040516102509190611523565b60405180910390f35b610273600480360381019061026e9190611655565b6104f9565b005b61028f600480360381019061028a91906115fc565b610517565b60405161029c9190611523565b60405180910390f35b6102ad610567565b6040516102ba91906113e3565b60405180910390f35b6102dd60048036038101906102d8919061149e565b6105f9565b6040516102ea91906114f9565b60405180910390f35b61030d6004803603810190610308919061149e565b610670565b60405161031a91906114f9565b60405180910390f35b61033d600480360381019061033891906116ae565b610693565b005b61035960048036038101906103549190611750565b6107d5565b6040516103669190611523565b60405180910390f35b60606003805461037e906117bf565b80601f01602080910402602001604051908101604052809291908181526020018280546103aa906117bf565b80156103f75780601f106103cc576101008083540402835291602001916103f7565b820191906000526020600020905b8154815290600101906020018083116103da57829003601f168201915b5050505050905090565b60008061040c61085c565b9050610419818585610864565b600191505092915050565b6000600254905090565b600061043b848484610a2f565b600190509392505050565b6000600760009054906101000a900460ff16905090565b6000610467610cb0565b905090565b60008061047761085c565b905061049881858561048985896107d5565b6104939190611820565b610864565b600191505092915050565b6104ad8282610dca565b5050565b60008060008373ffffffffffffffffffffffffffffffffffffffff1673ffffffffffffffffffffffffffffffffffffffff168152602001908152602001600020549050919050565b80600760006101000a81548160ff021916908360ff16021790555050565b6000610560600560008473ffffffffffffffffffffffffffffffffffffffff1673ffffffffffffffffffffffffffffffffffffffff168152602001908152602001600020610f2a565b9050919050565b606060048054610576906117bf565b80601f01602080910402602001604051908101604052809291908181526020018280546105a2906117bf565b80156105ef5780601f106105c4576101008083540402835291602001916105ef565b820191906000526020600020905b8154815290600101906020018083116105d257829003601f168201915b5050505050905090565b60008061060461085c565b9050600061061282866107d5565b905083811015610657576040517f08c379a000000000000000000000000000000000000000000000000000000000815260040161064e906118e8565b60405180910390fd5b6106648286868403610864565b60019250505092915050565b60008061067b61085c565b9050610688818585610a2f565b600191505092915050565b834211156106d6576040517f08c379a00000000000000000000000000000000000000000000000000000000081526004016106cd90611954565b60405180910390fd5b60007f6e71edae12b1b97f4d1f60370fef10105fa2faae0126114a169c64845d6126c98888886107058c610f38565b8960405160200161071b96959493929190611983565b604051602081830303815290604052805190602001209050600061073e82610f96565b9050600061074e82878787610fb0565b90508973ffffffffffffffffffffffffffffffffffffffff168173ffffffffffffffffffffffffffffffffffffffff16146107be576040517f08c379a00000000000000000000000000000000000000000000000000000000081526004016107b590611a30565b60405180910390fd5b6107c98a8a8a610864565b50505050505050505050565b6000600160008473ffffffffffffffffffffffffffffffffffffffff1673ffffffffffffffffffffffffffffffffffffffff16815260200190815260200160002060008373ffffffffffffffffffffffffffffffffffffffff1673ffffffffffffffffffffffffffffffffffffffff16815260200190815260200160002054905092915050565b600033905090565b600073ffffffffffffffffffffffffffffffffffffffff168373ffffffffffffffffffffffffffffffffffffffff1614156108d4576040517f08c379a00000000000000000000000000000000000000000000000000000000081526004016108cb90611ac2565b60405180910390fd5b600073ffffffffffffffffffffffffffffffffffffffff168273ffffffffffffffffffffffffffffffffffffffff161415610944576040517f08c379a000000000000000000000000000000000000000000000000000000000815260040161093b90611b54565b60405180910390fd5b80600160008573ffffffffffffffffffffffffffffffffffffffff1673ffffffffffffffffffffffffffffffffffffffff16815260200190815260200160002060008473ffffffffffffffffffffffffffffffffffffffff1673ffffffffffffffffffffffffffffffffffffffff168152602001908152602001600020819055508173ffffffffffffffffffffffffffffffffffffffff168373ffffffffffffffffffffffffffffffffffffffff167f8c5be1e5ebec7d5bd14f71427d1e84f3dd0314c0f7b2291e5b200ac8c7c3b92583604051610a229190611523565b60405180910390a3505050565b600073ffffffffffffffffffffffffffffffffffffffff168373ffffffffffffffffffffffffffffffffffffffff161415610a9f576040517f08c379a0000000000000000000000000000000000000000000000000000000008152600401610a9690611be6565b60405180910390fd5b600073ffffffffffffffffffffffffffffffffffffffff168273ffffffffffffffffffffffffffffffffffffffff161415610b0f576040517f08c379a0000000000000000000000000000000000000000000000000000000008152600401610b0690611c78565b60405180910390fd5b610b1a838383610fdb565b60008060008573ffffffffffffffffffffffffffffffffffffffff1673ffffffffffffffffffffffffffffffffffffffff16815260200190815260200160002054905081811015610ba0576040517f08c379a0000000000000000000000000000000000000000000000000000000008152600401610b9790611d0a565b60405180910390fd5b8181036000808673ffffffffffffffffffffffffffffffffffffffff1673ffffffffffffffffffffffffffffffffffffffff16815260200190815260200160002081905550816000808573ffffffffffffffffffffffffffffffffffffffff1673ffffffffffffffffffffffffffffffffffffffff1681526020019081526020016000206000828254610c339190611820565b925050819055508273ffffffffffffffffffffffffffffffffffffffff168473ffffffffffffffffffffffffffffffffffffffff167fddf252ad1be2c89b69c2b068fc378daa952ba7f163c4a11628f55a4df523b3ef84604051610c979190611523565b60405180910390a3610caa848484610fe0565b50505050565b60007f000000000000000000000000000000000000000000000000000000000000000073ffffffffffffffffffffffffffffffffffffffff163073ffffffffffffffffffffffffffffffffffffffff16148015610d2c57507f000000000000000000000000000000000000000000000000000000000000000046145b15610d59577f00000000000000000000000000000000000000000000000000000000000000009050610dc7565b610dc47f00000000000000000000000000000000000000000000000000000000000000007f00000000000000000000000000000000000000000000000000000000000000007f0000000000000000000000000000000000000000000000000000000000000000610fe5565b90505b90565b600073ffffffffffffffffffffffffffffffffffffffff168273ffffffffffffffffffffffffffffffffffffffff161415610e3a576040517f08c379a0000000000000000000000000000000000000000000000000000000008152600401610e3190611d76565b60405180910390fd5b610e4660008383610fdb565b8060026000828254610e589190611820565b92505081905550806000808473ffffffffffffffffffffffffffffffffffffffff1673ffffffffffffffffffffffffffffffffffffffff1681526020019081526020016000206000828254610ead9190611820565b925050819055508173ffffffffffffffffffffffffffffffffffffffff16600073ffffffffffffffffffffffffffffffffffffffff167fddf252ad1be2c89b69c2b068fc378daa952ba7f163c4a11628f55a4df523b3ef83604051610f129190611523565b60405180910390a3610f2660008383610fe0565b5050565b600081600001549050919050565b600080600560008473ffffffffffffffffffffffffffffffffffffffff1673ffffffffffffffffffffffffffffffffffffffff1681526020019081526020016000209050610f8581610f2a565b9150610f908161101f565b50919050565b6000610fa9610fa3610cb0565b83611035565b9050919050565b6000806000610fc187878787611068565b91509150610fce81611175565b8192505050949350505050565b505050565b505050565b60008383834630604051602001611000959493929190611d96565b6040516020818303038152906040528051906020012090509392505050565b6001816000016000828254019250508190555050565b6000828260405160200161104a929190611e61565b60405160208183030381529060405280519060200120905092915050565b6000807f7fffffffffffffffffffffffffffffff5d576e7357a4501ddfe92f46681b20a08360001c11156110a357600060039150915061116c565b601b8560ff16141580156110bb5750601c8560ff1614155b156110cd57600060049150915061116c565b6000600187878787604051600081526020016040526040516110f29493929190611e98565b6020604051602081039080840390855afa158015611114573d6000803e3d6000fd5b505050602060405103519050600073ffffffffffffffffffffffffffffffffffffffff168173ffffffffffffffffffffffffffffffffffffffff1614156111635760006001925092505061116c565b80600092509250505b94509492505050565b6000600481111561118957611188611edd565b5b81600481111561119c5761119b611edd565b5b14156111a757611347565b600160048111156111bb576111ba611edd565b5b8160048111156111ce576111cd611edd565b5b141561120f576040517f08c379a000000000000000000000000000000000000000000000000000000000815260040161120690611f58565b60405180910390fd5b6002600481111561122357611222611edd565b5b81600481111561123657611235611edd565b5b1415611277576040517f08c379a000000000000000000000000000000000000000000000000000000000815260040161126e90611fc4565b60405180910390fd5b6003600481111561128b5761128a611edd565b5b81600481111561129e5761129d611edd565b5b14156112df576040517f08c379a00000000000000000000000000000000000000000000000000000000081526004016112d690612056565b60405180910390fd5b6004808111156112f2576112f1611edd565b5b81600481111561130557611304611edd565b5b1415611346576040517f08c379a000000000000000000000000000000000000000000000000000000000815260040161133d906120e8565b60405180910390fd5b5b50565b600081519050919050565b600082825260208201905092915050565b60005b83811015611384578082015181840152602081019050611369565b83811115611393576000848401525b50505050565b6000601f19601f8301169050919050565b60006113b58261134a565b6113bf8185611355565b93506113cf818560208601611366565b6113d881611399565b840191505092915050565b600060208201905081810360008301526113fd81846113aa565b905092915050565b600080fd5b600073ffffffffffffffffffffffffffffffffffffffff82169050919050565b60006114358261140a565b9050919050565b6114458161142a565b811461145057600080fd5b50565b6000813590506114628161143c565b92915050565b6000819050919050565b61147b81611468565b811461148657600080fd5b50565b60008135905061149881611472565b92915050565b600080604083850312156114b5576114b4611405565b5b60006114c385828601611453565b92505060206114d485828601611489565b9150509250929050565b60008115159050919050565b6114f3816114de565b82525050565b600060208201905061150e60008301846114ea565b92915050565b61151d81611468565b82525050565b60006020820190506115386000830184611514565b92915050565b60008060006060848603121561155757611556611405565b5b600061156586828701611453565b935050602061157686828701611453565b925050604061158786828701611489565b9150509250925092565b600060ff82169050919050565b6115a781611591565b82525050565b60006020820190506115c2600083018461159e565b92915050565b6000819050919050565b6115db816115c8565b82525050565b60006020820190506115f660008301846115d2565b92915050565b60006020828403121561161257611611611405565b5b600061162084828501611453565b91505092915050565b61163281611591565b811461163d57600080fd5b50565b60008135905061164f81611629565b92915050565b60006020828403121561166b5761166a611405565b5b600061167984828501611640565b91505092915050565b61168b816115c8565b811461169657600080fd5b50565b6000813590506116a881611682565b92915050565b600080600080600080600060e0888a0312156116cd576116cc611405565b5b60006116db8a828b01611453565b97505060206116ec8a828b01611453565b96505060406116fd8a828b01611489565b955050606061170e8a828b01611489565b945050608061171f8a828b01611640565b93505060a06117308a828b01611699565b92505060c06117418a828b01611699565b91505092959891949750929550565b6000806040838503121561176757611766611405565b5b600061177585828601611453565b925050602061178685828601611453565b9150509250929050565b7f4e487b7100000000000000000000000000000000000000000000000000000000600052602260045260246000fd5b600060028204905060018216806117d757607f821691505b602082108114156117eb576117ea611790565b5b50919050565b7f4e487b7100000000000000000000000000000000000000000000000000000000600052601160045260246000fd5b600061182b82611468565b915061183683611468565b9250827fffffffffffffffffffffffffffffffffffffffffffffffffffffffffffffffff0382111561186b5761186a6117f1565b5b828201905092915050565b7f45524332303a2064656372656173656420616c6c6f77616e63652062656c6f7760008201527f207a65726f000000000000000000000000000000000000000000000000000000602082015250565b60006118d2602583611355565b91506118dd82611876565b604082019050919050565b60006020820190508181036000830152611901816118c5565b9050919050565b7f45524332305065726d69743a206578706972656420646561646c696e65000000600082015250565b600061193e601d83611355565b915061194982611908565b602082019050919050565b6000602082019050818103600083015261196d81611931565b9050919050565b61197d8161142a565b82525050565b600060c08201905061199860008301896115d2565b6119a56020830188611974565b6119b26040830187611974565b6119bf6060830186611514565b6119cc6080830185611514565b6119d960a0830184611514565b979650505050505050565b7f45524332305065726d69743a20696e76616c6964207369676e61747572650000600082015250565b6000611a1a601e83611355565b9150611a25826119e4565b602082019050919050565b60006020820190508181036000830152611a4981611a0d565b9050919050565b7f45524332303a20617070726f76652066726f6d20746865207a65726f2061646460008201527f7265737300000000000000000000000000000000000000000000000000000000602082015250565b6000611aac602483611355565b9150611ab782611a50565b604082019050919050565b60006020820190508181036000830152611adb81611a9f565b9050919050565b7f45524332303a20617070726f766520746f20746865207a65726f20616464726560008201527f7373000000000000000000000000000000000000000000000000000000000000602082015250565b6000611b3e602283611355565b9150611b4982611ae2565b604082019050919050565b60006020820190508181036000830152611b6d81611b31565b9050919050565b7f45524332303a207472616e736665722066726f6d20746865207a65726f20616460008201527f6472657373000000000000000000000000000000000000000000000000000000602082015250565b6000611bd0602583611355565b9150611bdb82611b74565b604082019050919050565b60006020820190508181036000830152611bff81611bc3565b9050919050565b7f45524332303a207472616e7366657220746f20746865207a65726f206164647260008201527f6573730000000000000000000000000000000000000000000000000000000000602082015250565b6000611c62602383611355565b9150611c6d82611c06565b604082019050919050565b60006020820190508181036000830152611c9181611c55565b9050919050565b7f45524332303a207472616e7366657220616d6f756e742065786365656473206260008201527f616c616e63650000000000000000000000000000000000000000000000000000602082015250565b6000611cf4602683611355565b9150611cff82611c98565b604082019050919050565b60006020820190508181036000830152611d2381611ce7565b9050919050565b7f45524332303a206d696e7420746f20746865207a65726f206164647265737300600082015250565b6000611d60601f83611355565b9150611d6b82611d2a565b602082019050919050565b60006020820190508181036000830152611d8f81611d53565b9050919050565b600060a082019050611dab60008301886115d2565b611db860208301876115d2565b611dc560408301866115d2565b611dd26060830185611514565b611ddf6080830184611974565b9695505050505050565b600081905092915050565b7f1901000000000000000000000000000000000000000000000000000000000000600082015250565b6000611e2a600283611de9565b9150611e3582611df4565b600282019050919050565b6000819050919050565b611e5b611e56826115c8565b611e40565b82525050565b6000611e6c82611e1d565b9150611e788285611e4a565b602082019150611e888284611e4a565b6020820191508190509392505050565b6000608082019050611ead60008301876115d2565b611eba602083018661159e565b611ec760408301856115d2565b611ed460608301846115d2565b95945050505050565b7f4e487b7100000000000000000000000000000000000000000000000000000000600052602160045260246000fd5b7f45434453413a20696e76616c6964207369676e61747572650000000000000000600082015250565b6000611f42601883611355565b9150611f4d82611f0c565b602082019050919050565b60006020820190508181036000830152611f7181611f35565b9050919050565b7f45434453413a20696e76616c6964207369676e6174757265206c656e67746800600082015250565b6000611fae601f83611355565b9150611fb982611f78565b602082019050919050565b60006020820190508181036000830152611fdd81611fa1565b9050919050565b7f45434453413a20696e76616c6964207369676e6174757265202773272076616c60008201527f7565000000000000000000000000000000000000000000000000000000000000602082015250565b6000612040602283611355565b915061204b82611fe4565b604082019050919050565b6000602082019050818103600083015261206f81612033565b9050919050565b7f45434453413a20696e76616c6964207369676e6174757265202776272076616c60008201527f7565000000000000000000000000000000000000000000000000000000000000602082015250565b60006120d2602283611355565b91506120dd82612076565b604082019050919050565b60006020820190508181036000830152612101816120c5565b905091905056fea26469706673582212201e4532c26784371d3a664a9ca12fb60f24032db379a1dc700f319a1a08e4a22064736f6c634300080b0033",
  "linkReferences": {},
  "deployedLinkReferences": {}
}