{
  "_format": "hh-sol-artifact-1",
  "contractName": "StorageFactory",
  "sourceName": "contracts/StorageFactory.sol",
  "abi": [
    {
      "inputs": [],
      "name": "allStorages",
      "outputs": [
        {
          "internalType": "contract Storage[]",
          "name": "storage_",
          "type": "address[]"
        }
      ],
      "stateMutability": "view",
      "type": "function"
    },
    {
      "inputs": [
        {
          "internalType": "uint256",
          "name": "_number",
          "type": "uint256"
        }
      ],
      "name": "createNewStorage",
      "outputs": [],
      "stateMutability": "nonpayable",
      "type": "function"
    },
    {
      "inputs": [
        {
          "internalType": "uint256",
          "name": "_position",
          "type": "uint256"
        }
      ],
      "name": "getStorage",
      "outputs": [
        {
          "internalType": "contract IStorage",
          "name": "",
          "type": "address"
        }
      ],
      "stateMutability": "view",
      "type": "function"
    }
  ],
  "bytecode": "0x608060405234801561001057600080fd5b50610684806100206000396000f3fe608060405234801561001057600080fd5b50600436106100415760003560e01c80635fa152091461004657806365fd477214610062578063851ff73714610092575b600080fd5b610060600480360381019061005b91906102cc565b6100b0565b005b61007c600480360381019061007791906102cc565b6101af565b6040516100899190610378565b60405180910390f35b61009a6101f6565b6040516100a79190610463565b60405180910390f35b60006040516100be90610284565b604051809103906000f0801580156100da573d6000803e3d6000fd5b5090508073ffffffffffffffffffffffffffffffffffffffff16636057361d836040518263ffffffff1660e01b81526004016101169190610494565b600060405180830381600087803b15801561013057600080fd5b505af1158015610144573d6000803e3d6000fd5b505050506000819080600181540180825580915050600190039060005260206000200160009091909190916101000a81548173ffffffffffffffffffffffffffffffffffffffff021916908373ffffffffffffffffffffffffffffffffffffffff1602179055505050565b60008082815481106101c4576101c36104af565b5b9060005260206000200160009054906101000a900473ffffffffffffffffffffffffffffffffffffffff169050919050565b6060600080548060200260200160405190810160405280929190818152602001828054801561027a57602002820191906000526020600020905b8160009054906101000a900473ffffffffffffffffffffffffffffffffffffffff1673ffffffffffffffffffffffffffffffffffffffff1681526020019060010190808311610230575b5050505050905090565b610170806104df83390190565b600080fd5b6000819050919050565b6102a981610296565b81146102b457600080fd5b50565b6000813590506102c6816102a0565b92915050565b6000602082840312156102e2576102e1610291565b5b60006102f0848285016102b7565b91505092915050565b600073ffffffffffffffffffffffffffffffffffffffff82169050919050565b6000819050919050565b600061033e610339610334846102f9565b610319565b6102f9565b9050919050565b600061035082610323565b9050919050565b600061036282610345565b9050919050565b61037281610357565b82525050565b600060208201905061038d6000830184610369565b92915050565b600081519050919050565b600082825260208201905092915050565b6000819050602082019050919050565b60006103ca82610345565b9050919050565b6103da816103bf565b82525050565b60006103ec83836103d1565b60208301905092915050565b6000602082019050919050565b600061041082610393565b61041a818561039e565b9350610425836103af565b8060005b8381101561045657815161043d88826103e0565b9750610448836103f8565b925050600181019050610429565b5085935050505092915050565b6000602082019050818103600083015261047d8184610405565b905092915050565b61048e81610296565b82525050565b60006020820190506104a96000830184610485565b92915050565b7f4e487b7100000000000000000000000000000000000000000000000000000000600052603260045260246000fdfe608060405234801561001057600080fd5b50610150806100206000396000f3fe608060405234801561001057600080fd5b50600436106100365760003560e01c8063209652551461003b5780636057361d14610059575b600080fd5b610043610075565b60405161005091906100a1565b60405180910390f35b610073600480360381019061006e91906100ed565b61007e565b005b60008054905090565b8060008190555050565b6000819050919050565b61009b81610088565b82525050565b60006020820190506100b66000830184610092565b92915050565b600080fd5b6100ca81610088565b81146100d557600080fd5b50565b6000813590506100e7816100c1565b92915050565b600060208284031215610103576101026100bc565b5b6000610111848285016100d8565b9150509291505056fea264697066735822122070e51acacf9713e01eb5a1424d326711a93a97781fd84e3c545d7ff6c0fdce6764736f6c634300080b0033a26469706673582212205c7ff1e5c62d17c1bae83147a0d33286d71e2658e54cad87e05e9c0e6e615ced64736f6c634300080b0033",
  "linkReferences": {},
  "deployedLinkReferences": {}
}