{
  "_format": "hh-sol-artifact-1",
  "contractName": "ContractManager",
  "sourceName": "contracts/ContractManager.sol",
  "abi": [
    {
      "inputs": [
        {
          "internalType": "uint256",
          "name": "_cloneNumber",
          "type": "uint256"
        },
        {
          "internalType": "address",
          "name": "_cloneAddress",
          "type": "address"
        }
      ],
      "name": "addClone",
      "outputs": [],
      "stateMutability": "nonpayable",
      "type": "function"
    },
    {
      "inputs": [
        {
          "internalType": "uint256",
          "name": "_copyNumber",
          "type": "uint256"
        },
        {
          "internalType": "address",
          "name": "_copyAddress",
          "type": "address"
        }
      ],
      "name": "addCopy",
      "outputs": [],
      "stateMutability": "nonpayable",
      "type": "function"
    },
    {
      "inputs": [
        {
          "internalType": "uint256",
          "name": "_cloneNumber",
          "type": "uint256"
        }
      ],
      "name": "getCloneInterface",
      "outputs": [
        {
          "internalType": "contract IMyTokenV1",
          "name": "",
          "type": "address"
        }
      ],
      "stateMutability": "view",
      "type": "function"
    }
  ],
  "bytecode": "0x608060405234801561001057600080fd5b5061034b806100206000396000f3fe608060405234801561001057600080fd5b50600436106100415760003560e01c80637342e76a1461004657806398c57a9614610062578063ce8f82811461007e575b600080fd5b610060600480360381019061005b919061022e565b6100ae565b005b61007c6004803603810190610077919061022e565b610103565b005b6100986004803603810190610093919061026e565b610159565b6040516100a591906102fa565b60405180910390f35b8060008084815260200190815260200160002060006101000a81548173ffffffffffffffffffffffffffffffffffffffff021916908373ffffffffffffffffffffffffffffffffffffffff1602179055505050565b806001600084815260200190815260200160002060006101000a81548173ffffffffffffffffffffffffffffffffffffffff021916908373ffffffffffffffffffffffffffffffffffffffff1602179055505050565b600080600083815260200190815260200160002060009054906101000a900473ffffffffffffffffffffffffffffffffffffffff169050919050565b600080fd5b6000819050919050565b6101ad8161019a565b81146101b857600080fd5b50565b6000813590506101ca816101a4565b92915050565b600073ffffffffffffffffffffffffffffffffffffffff82169050919050565b60006101fb826101d0565b9050919050565b61020b816101f0565b811461021657600080fd5b50565b60008135905061022881610202565b92915050565b6000806040838503121561024557610244610195565b5b6000610253858286016101bb565b925050602061026485828601610219565b9150509250929050565b60006020828403121561028457610283610195565b5b6000610292848285016101bb565b91505092915050565b6000819050919050565b60006102c06102bb6102b6846101d0565b61029b565b6101d0565b9050919050565b60006102d2826102a5565b9050919050565b60006102e4826102c7565b9050919050565b6102f4816102d9565b82525050565b600060208201905061030f60008301846102eb565b9291505056fea26469706673582212200dcb23bb571c66664e3ca020bae6eb6562c68f248f77aa62f59e2918b6fd0d5564736f6c634300080b0033",
  "linkReferences": {},
  "deployedLinkReferences": {}
}