{
  "_format": "hh-sol-artifact-1",
  "contractName": "MyTokenV1",
  "sourceName": "contracts/MyTokenV1.sol",
  "abi": [
    {
      "inputs": [],
      "stateMutability": "nonpayable",
      "type": "constructor"
    },
    {
      "anonymous": false,
      "inputs": [
        {
          "indexed": false,
          "internalType": "address",
          "name": "previousAdmin",
          "type": "address"
        },
        {
          "indexed": false,
          "internalType": "address",
          "name": "newAdmin",
          "type": "address"
        }
      ],
      "name": "AdminChanged",
      "type": "event"
    },
    {
      "anonymous": false,
      "inputs": [
        {
          "indexed": true,
          "internalType": "address",
          "name": "owner",
          "type": "address"
        },
        {
          "indexed": true,
          "internalType": "address",
          "name": "spender",
          "type": "address"
        },
        {
          "indexed": false,
          "internalType": "uint256",
          "name": "value",
          "type": "uint256"
        }
      ],
      "name": "Approval",
      "type": "event"
    },
    {
      "anonymous": false,
      "inputs": [
        {
          "indexed": true,
          "internalType": "address",
          "name": "beacon",
          "type": "address"
        }
      ],
      "name": "BeaconUpgraded",
      "type": "event"
    },
    {
      "anonymous": false,
      "inputs": [
        {
          "indexed": false,
          "internalType": "uint8",
          "name": "version",
          "type": "uint8"
        }
      ],
      "name": "Initialized",
      "type": "event"
    },
    {
      "anonymous": false,
      "inputs": [
        {
          "indexed": true,
          "internalType": "address",
          "name": "previousOwner",
          "type": "address"
        },
        {
          "indexed": true,
          "internalType": "address",
          "name": "newOwner",
          "type": "address"
        }
      ],
      "name": "OwnershipTransferred",
      "type": "event"
    },
    {
      "anonymous": false,
      "inputs": [
        {
          "indexed": true,
          "internalType": "address",
          "name": "from",
          "type": "address"
        },
        {
          "indexed": true,
          "internalType": "address",
          "name": "to",
          "type": "address"
        },
        {
          "indexed": false,
          "internalType": "uint256",
          "name": "value",
          "type": "uint256"
        }
      ],
      "name": "Transfer",
      "type": "event"
    },
    {
      "anonymous": false,
      "inputs": [
        {
          "indexed": true,
          "internalType": "address",
          "name": "implementation",
          "type": "address"
        }
      ],
      "name": "Upgraded",
      "type": "event"
    },
    {
      "inputs": [
        {
          "internalType": "address",
          "name": "owner",
          "type": "address"
        },
        {
          "internalType": "address",
          "name": "spender",
          "type": "address"
        }
      ],
      "name": "allowance",
      "outputs": [
        {
          "internalType": "uint256",
          "name": "",
          "type": "uint256"
        }
      ],
      "stateMutability": "view",
      "type": "function"
    },
    {
      "inputs": [
        {
          "internalType": "address",
          "name": "spender",
          "type": "address"
        },
        {
          "internalType": "uint256",
          "name": "amount",
          "type": "uint256"
        }
      ],
      "name": "approve",
      "outputs": [
        {
          "internalType": "bool",
          "name": "",
          "type": "bool"
        }
      ],
      "stateMutability": "nonpayable",
      "type": "function"
    },
    {
      "inputs": [
        {
          "internalType": "address",
          "name": "account",
          "type": "address"
        }
      ],
      "name": "balanceOf",
      "outputs": [
        {
          "internalType": "uint256",
          "name": "",
          "type": "uint256"
        }
      ],
      "stateMutability": "view",
      "type": "function"
    },
    {
      "inputs": [],
      "name": "decimals",
      "outputs": [
        {
          "internalType": "uint8",
          "name": "",
          "type": "uint8"
        }
      ],
      "stateMutability": "view",
      "type": "function"
    },
    {
      "inputs": [
        {
          "internalType": "address",
          "name": "spender",
          "type": "address"
        },
        {
          "internalType": "uint256",
          "name": "subtractedValue",
          "type": "uint256"
        }
      ],
      "name": "decreaseAllowance",
      "outputs": [
        {
          "internalType": "bool",
          "name": "",
          "type": "bool"
        }
      ],
      "stateMutability": "nonpayable",
      "type": "function"
    },
    {
      "inputs": [
        {
          "internalType": "address",
          "name": "spender",
          "type": "address"
        },
        {
          "internalType": "uint256",
          "name": "addedValue",
          "type": "uint256"
        }
      ],
      "name": "increaseAllowance",
      "outputs": [
        {
          "internalType": "bool",
          "name": "",
          "type": "bool"
        }
      ],
      "stateMutability": "nonpayable",
      "type": "function"
    },
    {
      "inputs": [
        {
          "internalType": "string",
          "name": "_name",
          "type": "string"
        },
        {
          "internalType": "string",
          "name": "_symbol",
          "type": "string"
        }
      ],
      "name": "initialize",
      "outputs": [],
      "stateMutability": "nonpayable",
      "type": "function"
    },
    {
      "inputs": [],
      "name": "name",
      "outputs": [
        {
          "internalType": "string",
          "name": "",
          "type": "string"
        }
      ],
      "stateMutability": "view",
      "type": "function"
    },
    {
      "inputs": [],
      "name": "owner",
      "outputs": [
        {
          "internalType": "address",
          "name": "",
          "type": "address"
        }
      ],
      "stateMutability": "view",
      "type": "function"
    },
    {
      "inputs": [],
      "name": "proxiableUUID",
      "outputs": [
        {
          "internalType": "bytes32",
          "name": "",
          "type": "bytes32"
        }
      ],
      "stateMutability": "view",
      "type": "function"
    },
    {
      "inputs": [],
      "name": "renounceOwnership",
      "outputs": [],
      "stateMutability": "nonpayable",
      "type": "function"
    },
    {
      "inputs": [],
      "name": "symbol",
      "outputs": [
        {
          "internalType": "string",
          "name": "",
          "type": "string"
        }
      ],
      "stateMutability": "view",
      "type": "function"
    },
    {
      "inputs": [],
      "name": "totalSupply",
      "outputs": [
        {
          "internalType": "uint256",
          "name": "",
          "type": "uint256"
        }
      ],
      "stateMutability": "view",
      "type": "function"
    },
    {
      "inputs": [
        {
          "internalType": "address",
          "name": "to",
          "type": "address"
        },
        {
          "internalType": "uint256",
          "name": "amount",
          "type": "uint256"
        }
      ],
      "name": "transfer",
      "outputs": [
        {
          "internalType": "bool",
          "name": "",
          "type": "bool"
        }
      ],
      "stateMutability": "nonpayable",
      "type": "function"
    },
    {
      "inputs": [
        {
          "internalType": "address",
          "name": "from",
          "type": "address"
        },
        {
          "internalType": "address",
          "name": "to",
          "type": "address"
        },
        {
          "internalType": "uint256",
          "name": "amount",
          "type": "uint256"
        }
      ],
      "name": "transferFrom",
      "outputs": [
        {
          "internalType": "bool",
          "name": "",
          "type": "bool"
        }
      ],
      "stateMutability": "nonpayable",
      "type": "function"
    },
    {
      "inputs": [
        {
          "internalType": "address",
          "name": "newOwner",
          "type": "address"
        }
      ],
      "name": "transferOwnership",
      "outputs": [],
      "stateMutability": "nonpayable",
      "type": "function"
    },
    {
      "inputs": [
        {
          "internalType": "address",
          "name": "newImplementation",
          "type": "address"
        }
      ],
      "name": "upgradeTo",
      "outputs": [],
      "stateMutability": "nonpayable",
      "type": "function"
    },
    {
      "inputs": [
        {
          "internalType": "address",
          "name": "newImplementation",
          "type": "address"
        },
        {
          "internalType": "bytes",
          "name": "data",
          "type": "bytes"
        }
      ],
      "name": "upgradeToAndCall",
      "outputs": [],
      "stateMutability": "payable",
      "type": "function"
    }
  ],
  "bytecode": "0x60a06040523073ffffffffffffffffffffffffffffffffffffffff1660809073ffffffffffffffffffffffffffffffffffffffff168152503480156200004457600080fd5b5060008060019054906101000a900460ff16159050808015620000775750600160008054906101000a900460ff1660ff16105b80620000b3575062000094306200019660201b62000d8f1760201c565b158015620000b25750600160008054906101000a900460ff1660ff16145b5b620000f5576040517f08c379a0000000000000000000000000000000000000000000000000000000008152600401620000ec9062000240565b60405180910390fd5b60016000806101000a81548160ff021916908360ff160217905550801562000133576001600060016101000a81548160ff0219169083151502179055505b80156200018f5760008060016101000a81548160ff0219169083151502179055507f7f26b83ff96e1f2b6a682f133852f6798a09c465da95921460cefb38474024986001604051620001869190620002bc565b60405180910390a15b50620002d9565b6000808273ffffffffffffffffffffffffffffffffffffffff163b119050919050565b600082825260208201905092915050565b7f496e697469616c697a61626c653a20636f6e747261637420697320616c72656160008201527f647920696e697469616c697a6564000000000000000000000000000000000000602082015250565b600062000228602e83620001b9565b91506200023582620001ca565b604082019050919050565b600060208201905081810360008301526200025b8162000219565b9050919050565b6000819050919050565b600060ff82169050919050565b6000819050919050565b6000620002a46200029e620002988462000262565b62000279565b6200026c565b9050919050565b620002b68162000283565b82525050565b6000602082019050620002d36000830184620002ab565b92915050565b6080516131c76200031160003960008181610562015281816105f1015281816108dd0152818161096c0152610a1c01526131c76000f3fe6080604052600436106101095760003560e01c806352d1902d1161009557806395d89b411161006457806395d89b411461035e578063a457c2d714610389578063a9059cbb146103c6578063dd62ed3e14610403578063f2fde38b1461044057610109565b806352d1902d146102b457806370a08231146102df578063715018a61461031c5780638da5cb5b1461033357610109565b8063313ce567116100dc578063313ce567146101de5780633659cfe61461020957806339509351146102325780634cd88b761461026f5780634f1ef2861461029857610109565b806306fdde031461010e578063095ea7b31461013957806318160ddd1461017657806323b872dd146101a1575b600080fd5b34801561011a57600080fd5b50610123610469565b6040516101309190611d91565b60405180910390f35b34801561014557600080fd5b50610160600480360381019061015b9190611e5b565b6104fb565b60405161016d9190611eb6565b60405180910390f35b34801561018257600080fd5b5061018b61051e565b6040516101989190611ee0565b60405180910390f35b3480156101ad57600080fd5b506101c860048036038101906101c39190611efb565b610528565b6040516101d59190611eb6565b60405180910390f35b3480156101ea57600080fd5b506101f3610557565b6040516102009190611f6a565b60405180910390f35b34801561021557600080fd5b50610230600480360381019061022b9190611f85565b610560565b005b34801561023e57600080fd5b5061025960048036038101906102549190611e5b565b6106e9565b6040516102669190611eb6565b60405180910390f35b34801561027b57600080fd5b50610296600480360381019061029191906120e7565b610720565b005b6102b260048036038101906102ad9190612200565b6108db565b005b3480156102c057600080fd5b506102c9610a18565b6040516102d69190612275565b60405180910390f35b3480156102eb57600080fd5b5061030660048036038101906103019190611f85565b610ad1565b6040516103139190611ee0565b60405180910390f35b34801561032857600080fd5b50610331610b1a565b005b34801561033f57600080fd5b50610348610b2e565b604051610355919061229f565b60405180910390f35b34801561036a57600080fd5b50610373610b58565b6040516103809190611d91565b60405180910390f35b34801561039557600080fd5b506103b060048036038101906103ab9190611e5b565b610bea565b6040516103bd9190611eb6565b60405180910390f35b3480156103d257600080fd5b506103ed60048036038101906103e89190611e5b565b610c61565b6040516103fa9190611eb6565b60405180910390f35b34801561040f57600080fd5b5061042a600480360381019061042591906122ba565b610c84565b6040516104379190611ee0565b60405180910390f35b34801561044c57600080fd5b5061046760048036038101906104629190611f85565b610d0b565b005b60606036805461047890612329565b80601f01602080910402602001604051908101604052809291908181526020018280546104a490612329565b80156104f15780601f106104c6576101008083540402835291602001916104f1565b820191906000526020600020905b8154815290600101906020018083116104d457829003601f168201915b5050505050905090565b600080610506610db2565b9050610513818585610dba565b600191505092915050565b6000603554905090565b600080610533610db2565b9050610540858285610f85565b61054b858585611011565b60019150509392505050565b60006012905090565b7f000000000000000000000000000000000000000000000000000000000000000073ffffffffffffffffffffffffffffffffffffffff163073ffffffffffffffffffffffffffffffffffffffff1614156105ef576040517f08c379a00000000000000000000000000000000000000000000000000000000081526004016105e6906123cd565b60405180910390fd5b7f000000000000000000000000000000000000000000000000000000000000000073ffffffffffffffffffffffffffffffffffffffff1661062e611295565b73ffffffffffffffffffffffffffffffffffffffff1614610684576040517f08c379a000000000000000000000000000000000000000000000000000000000815260040161067b9061245f565b60405180910390fd5b61068d816112ec565b6106e681600067ffffffffffffffff8111156106ac576106ab611fbc565b5b6040519080825280601f01601f1916602001820160405280156106de5781602001600182028036833780820191505090505b5060006112f7565b50565b6000806106f4610db2565b90506107158185856107068589610c84565b61071091906124ae565b610dba565b600191505092915050565b60008060019054906101000a900460ff161590508080156107515750600160008054906101000a900460ff1660ff16105b8061077e575061076030610d8f565b15801561077d5750600160008054906101000a900460ff1660ff16145b5b6107bd576040517f08c379a00000000000000000000000000000000000000000000000000000000081526004016107b490612576565b60405180910390fd5b60016000806101000a81548160ff021916908360ff16021790555080156107fa576001600060016101000a81548160ff0219169083151502179055505b6108048383611465565b61080c6114c2565b61081461151b565b6108536040518060400160405280600c81526020017f696e697469616c697a653a2000000000000000000000000000000000000000008152508461156c565b61087d3361085f610557565b600a61086b91906126c9565b6103e86108789190612714565b611608565b80156108d65760008060016101000a81548160ff0219169083151502179055507f7f26b83ff96e1f2b6a682f133852f6798a09c465da95921460cefb384740249860016040516108cd91906127b3565b60405180910390a15b505050565b7f000000000000000000000000000000000000000000000000000000000000000073ffffffffffffffffffffffffffffffffffffffff163073ffffffffffffffffffffffffffffffffffffffff16141561096a576040517f08c379a0000000000000000000000000000000000000000000000000000000008152600401610961906123cd565b60405180910390fd5b7f000000000000000000000000000000000000000000000000000000000000000073ffffffffffffffffffffffffffffffffffffffff166109a9611295565b73ffffffffffffffffffffffffffffffffffffffff16146109ff576040517f08c379a00000000000000000000000000000000000000000000000000000000081526004016109f69061245f565b60405180910390fd5b610a08826112ec565b610a14828260016112f7565b5050565b60007f000000000000000000000000000000000000000000000000000000000000000073ffffffffffffffffffffffffffffffffffffffff163073ffffffffffffffffffffffffffffffffffffffff1614610aa8576040517f08c379a0000000000000000000000000000000000000000000000000000000008152600401610a9f90612840565b60405180910390fd5b7f360894a13ba1a3210667c828492db98dca3e2076cc3735a920a3ca505d382bbc60001b905090565b6000603360008373ffffffffffffffffffffffffffffffffffffffff1673ffffffffffffffffffffffffffffffffffffffff168152602001908152602001600020549050919050565b610b22611769565b610b2c60006117e7565b565b600060c960009054906101000a900473ffffffffffffffffffffffffffffffffffffffff16905090565b606060378054610b6790612329565b80601f0160208091040260200160405190810160405280929190818152602001828054610b9390612329565b8015610be05780601f10610bb557610100808354040283529160200191610be0565b820191906000526020600020905b815481529060010190602001808311610bc357829003601f168201915b5050505050905090565b600080610bf5610db2565b90506000610c038286610c84565b905083811015610c48576040517f08c379a0000000000000000000000000000000000000000000000000000000008152600401610c3f906128d2565b60405180910390fd5b610c558286868403610dba565b60019250505092915050565b600080610c6c610db2565b9050610c79818585611011565b600191505092915050565b6000603460008473ffffffffffffffffffffffffffffffffffffffff1673ffffffffffffffffffffffffffffffffffffffff16815260200190815260200160002060008373ffffffffffffffffffffffffffffffffffffffff1673ffffffffffffffffffffffffffffffffffffffff16815260200190815260200160002054905092915050565b610d13611769565b600073ffffffffffffffffffffffffffffffffffffffff168173ffffffffffffffffffffffffffffffffffffffff161415610d83576040517f08c379a0000000000000000000000000000000000000000000000000000000008152600401610d7a90612964565b60405180910390fd5b610d8c816117e7565b50565b6000808273ffffffffffffffffffffffffffffffffffffffff163b119050919050565b600033905090565b600073ffffffffffffffffffffffffffffffffffffffff168373ffffffffffffffffffffffffffffffffffffffff161415610e2a576040517f08c379a0000000000000000000000000000000000000000000000000000000008152600401610e21906129f6565b60405180910390fd5b600073ffffffffffffffffffffffffffffffffffffffff168273ffffffffffffffffffffffffffffffffffffffff161415610e9a576040517f08c379a0000000000000000000000000000000000000000000000000000000008152600401610e9190612a88565b60405180910390fd5b80603460008573ffffffffffffffffffffffffffffffffffffffff1673ffffffffffffffffffffffffffffffffffffffff16815260200190815260200160002060008473ffffffffffffffffffffffffffffffffffffffff1673ffffffffffffffffffffffffffffffffffffffff168152602001908152602001600020819055508173ffffffffffffffffffffffffffffffffffffffff168373ffffffffffffffffffffffffffffffffffffffff167f8c5be1e5ebec7d5bd14f71427d1e84f3dd0314c0f7b2291e5b200ac8c7c3b92583604051610f789190611ee0565b60405180910390a3505050565b6000610f918484610c84565b90507fffffffffffffffffffffffffffffffffffffffffffffffffffffffffffffffff811461100b5781811015610ffd576040517f08c379a0000000000000000000000000000000000000000000000000000000008152600401610ff490612af4565b60405180910390fd5b61100a8484848403610dba565b5b50505050565b600073ffffffffffffffffffffffffffffffffffffffff168373ffffffffffffffffffffffffffffffffffffffff161415611081576040517f08c379a000000000000000000000000000000000000000000000000000000000815260040161107890612b86565b60405180910390fd5b600073ffffffffffffffffffffffffffffffffffffffff168273ffffffffffffffffffffffffffffffffffffffff1614156110f1576040517f08c379a00000000000000000000000000000000000000000000000000000000081526004016110e890612c18565b60405180910390fd5b6110fc8383836118ad565b6000603360008573ffffffffffffffffffffffffffffffffffffffff1673ffffffffffffffffffffffffffffffffffffffff16815260200190815260200160002054905081811015611183576040517f08c379a000000000000000000000000000000000000000000000000000000000815260040161117a90612caa565b60405180910390fd5b818103603360008673ffffffffffffffffffffffffffffffffffffffff1673ffffffffffffffffffffffffffffffffffffffff1681526020019081526020016000208190555081603360008573ffffffffffffffffffffffffffffffffffffffff1673ffffffffffffffffffffffffffffffffffffffff168152602001908152602001600020600082825461121891906124ae565b925050819055508273ffffffffffffffffffffffffffffffffffffffff168473ffffffffffffffffffffffffffffffffffffffff167fddf252ad1be2c89b69c2b068fc378daa952ba7f163c4a11628f55a4df523b3ef8460405161127c9190611ee0565b60405180910390a361128f8484846118b2565b50505050565b60006112c37f360894a13ba1a3210667c828492db98dca3e2076cc3735a920a3ca505d382bbc60001b6118b7565b60000160009054906101000a900473ffffffffffffffffffffffffffffffffffffffff16905090565b6112f4611769565b50565b6113237f4910fdfa16fed3260ed0e7147f7cc6da11a60208b5b9406d12a635614ffd914360001b6118c1565b60000160009054906101000a900460ff161561134757611342836118cb565b611460565b8273ffffffffffffffffffffffffffffffffffffffff166352d1902d6040518163ffffffff1660e01b8152600401602060405180830381865afa9250505080156113af57506040513d601f19601f820116820180604052508101906113ac9190612cf6565b60015b6113ee576040517f08c379a00000000000000000000000000000000000000000000000000000000081526004016113e590612d95565b60405180910390fd5b7f360894a13ba1a3210667c828492db98dca3e2076cc3735a920a3ca505d382bbc60001b8114611453576040517f08c379a000000000000000000000000000000000000000000000000000000000815260040161144a90612e27565b60405180910390fd5b5061145f838383611984565b5b505050565b600060019054906101000a900460ff166114b4576040517f08c379a00000000000000000000000000000000000000000000000000000000081526004016114ab90612eb9565b60405180910390fd5b6114be82826119b0565b5050565b600060019054906101000a900460ff16611511576040517f08c379a000000000000000000000000000000000000000000000000000000000815260040161150890612eb9565b60405180910390fd5b611519611a31565b565b600060019054906101000a900460ff1661156a576040517f08c379a000000000000000000000000000000000000000000000000000000000815260040161156190612eb9565b60405180910390fd5b565b6116048282604051602401611582929190612ed9565b6040516020818303038152906040527f4b5c4277000000000000000000000000000000000000000000000000000000007bffffffffffffffffffffffffffffffffffffffffffffffffffffffff19166020820180517bffffffffffffffffffffffffffffffffffffffffffffffffffffffff8381831617835250505050611a92565b5050565b600073ffffffffffffffffffffffffffffffffffffffff168273ffffffffffffffffffffffffffffffffffffffff161415611678576040517f08c379a000000000000000000000000000000000000000000000000000000000815260040161166f90612f5c565b60405180910390fd5b611684600083836118ad565b806035600082825461169691906124ae565b9250508190555080603360008473ffffffffffffffffffffffffffffffffffffffff1673ffffffffffffffffffffffffffffffffffffffff16815260200190815260200160002060008282546116ec91906124ae565b925050819055508173ffffffffffffffffffffffffffffffffffffffff16600073ffffffffffffffffffffffffffffffffffffffff167fddf252ad1be2c89b69c2b068fc378daa952ba7f163c4a11628f55a4df523b3ef836040516117519190611ee0565b60405180910390a3611765600083836118b2565b5050565b611771610db2565b73ffffffffffffffffffffffffffffffffffffffff1661178f610b2e565b73ffffffffffffffffffffffffffffffffffffffff16146117e5576040517f08c379a00000000000000000000000000000000000000000000000000000000081526004016117dc90612fc8565b60405180910390fd5b565b600060c960009054906101000a900473ffffffffffffffffffffffffffffffffffffffff1690508160c960006101000a81548173ffffffffffffffffffffffffffffffffffffffff021916908373ffffffffffffffffffffffffffffffffffffffff1602179055508173ffffffffffffffffffffffffffffffffffffffff168173ffffffffffffffffffffffffffffffffffffffff167f8be0079c531659141344cd1fd0a4f28419497f9722a3daafe3b4186f6b6457e060405160405180910390a35050565b505050565b505050565b6000819050919050565b6000819050919050565b6118d481610d8f565b611913576040517f08c379a000000000000000000000000000000000000000000000000000000000815260040161190a9061305a565b60405180910390fd5b806119407f360894a13ba1a3210667c828492db98dca3e2076cc3735a920a3ca505d382bbc60001b6118b7565b60000160006101000a81548173ffffffffffffffffffffffffffffffffffffffff021916908373ffffffffffffffffffffffffffffffffffffffff16021790555050565b61198d83611abb565b60008251118061199a5750805b156119ab576119a98383611b0a565b505b505050565b600060019054906101000a900460ff166119ff576040517f08c379a00000000000000000000000000000000000000000000000000000000081526004016119f690612eb9565b60405180910390fd5b8160369080519060200190611a15929190611c55565b508060379080519060200190611a2c929190611c55565b505050565b600060019054906101000a900460ff16611a80576040517f08c379a0000000000000000000000000000000000000000000000000000000008152600401611a7790612eb9565b60405180910390fd5b611a90611a8b610db2565b6117e7565b565b60008151905060006a636f6e736f6c652e6c6f679050602083016000808483855afa5050505050565b611ac4816118cb565b8073ffffffffffffffffffffffffffffffffffffffff167fbc7cd75a20ee27fd9adebab32041f755214dbc6bffa90cc0225b39da2e5c2d3b60405160405180910390a250565b6060611b1583610d8f565b611b54576040517f08c379a0000000000000000000000000000000000000000000000000000000008152600401611b4b906130ec565b60405180910390fd5b6000808473ffffffffffffffffffffffffffffffffffffffff1684604051611b7c9190613153565b600060405180830381855af49150503d8060008114611bb7576040519150601f19603f3d011682016040523d82523d6000602084013e611bbc565b606091505b5091509150611be4828260405180606001604052806027815260200161316b60279139611bee565b9250505092915050565b60608315611bfe57829050611c4e565b600083511115611c115782518084602001fd5b816040517f08c379a0000000000000000000000000000000000000000000000000000000008152600401611c459190611d91565b60405180910390fd5b9392505050565b828054611c6190612329565b90600052602060002090601f016020900481019282611c835760008555611cca565b82601f10611c9c57805160ff1916838001178555611cca565b82800160010185558215611cca579182015b82811115611cc9578251825591602001919060010190611cae565b5b509050611cd79190611cdb565b5090565b5b80821115611cf4576000816000905550600101611cdc565b5090565b600081519050919050565b600082825260208201905092915050565b60005b83811015611d32578082015181840152602081019050611d17565b83811115611d41576000848401525b50505050565b6000601f19601f8301169050919050565b6000611d6382611cf8565b611d6d8185611d03565b9350611d7d818560208601611d14565b611d8681611d47565b840191505092915050565b60006020820190508181036000830152611dab8184611d58565b905092915050565b6000604051905090565b600080fd5b600080fd5b600073ffffffffffffffffffffffffffffffffffffffff82169050919050565b6000611df282611dc7565b9050919050565b611e0281611de7565b8114611e0d57600080fd5b50565b600081359050611e1f81611df9565b92915050565b6000819050919050565b611e3881611e25565b8114611e4357600080fd5b50565b600081359050611e5581611e2f565b92915050565b60008060408385031215611e7257611e71611dbd565b5b6000611e8085828601611e10565b9250506020611e9185828601611e46565b9150509250929050565b60008115159050919050565b611eb081611e9b565b82525050565b6000602082019050611ecb6000830184611ea7565b92915050565b611eda81611e25565b82525050565b6000602082019050611ef56000830184611ed1565b92915050565b600080600060608486031215611f1457611f13611dbd565b5b6000611f2286828701611e10565b9350506020611f3386828701611e10565b9250506040611f4486828701611e46565b9150509250925092565b600060ff82169050919050565b611f6481611f4e565b82525050565b6000602082019050611f7f6000830184611f5b565b92915050565b600060208284031215611f9b57611f9a611dbd565b5b6000611fa984828501611e10565b91505092915050565b600080fd5b600080fd5b7f4e487b7100000000000000000000000000000000000000000000000000000000600052604160045260246000fd5b611ff482611d47565b810181811067ffffffffffffffff8211171561201357612012611fbc565b5b80604052505050565b6000612026611db3565b90506120328282611feb565b919050565b600067ffffffffffffffff82111561205257612051611fbc565b5b61205b82611d47565b9050602081019050919050565b82818337600083830152505050565b600061208a61208584612037565b61201c565b9050828152602081018484840111156120a6576120a5611fb7565b5b6120b1848285612068565b509392505050565b600082601f8301126120ce576120cd611fb2565b5b81356120de848260208601612077565b91505092915050565b600080604083850312156120fe576120fd611dbd565b5b600083013567ffffffffffffffff81111561211c5761211b611dc2565b5b612128858286016120b9565b925050602083013567ffffffffffffffff81111561214957612148611dc2565b5b612155858286016120b9565b9150509250929050565b600067ffffffffffffffff82111561217a57612179611fbc565b5b61218382611d47565b9050602081019050919050565b60006121a361219e8461215f565b61201c565b9050828152602081018484840111156121bf576121be611fb7565b5b6121ca848285612068565b509392505050565b600082601f8301126121e7576121e6611fb2565b5b81356121f7848260208601612190565b91505092915050565b6000806040838503121561221757612216611dbd565b5b600061222585828601611e10565b925050602083013567ffffffffffffffff81111561224657612245611dc2565b5b612252858286016121d2565b9150509250929050565b6000819050919050565b61226f8161225c565b82525050565b600060208201905061228a6000830184612266565b92915050565b61229981611de7565b82525050565b60006020820190506122b46000830184612290565b92915050565b600080604083850312156122d1576122d0611dbd565b5b60006122df85828601611e10565b92505060206122f085828601611e10565b9150509250929050565b7f4e487b7100000000000000000000000000000000000000000000000000000000600052602260045260246000fd5b6000600282049050600182168061234157607f821691505b60208210811415612355576123546122fa565b5b50919050565b7f46756e6374696f6e206d7573742062652063616c6c6564207468726f7567682060008201527f64656c656761746563616c6c0000000000000000000000000000000000000000602082015250565b60006123b7602c83611d03565b91506123c28261235b565b604082019050919050565b600060208201905081810360008301526123e6816123aa565b9050919050565b7f46756e6374696f6e206d7573742062652063616c6c6564207468726f7567682060008201527f6163746976652070726f78790000000000000000000000000000000000000000602082015250565b6000612449602c83611d03565b9150612454826123ed565b604082019050919050565b600060208201905081810360008301526124788161243c565b9050919050565b7f4e487b7100000000000000000000000000000000000000000000000000000000600052601160045260246000fd5b60006124b982611e25565b91506124c483611e25565b9250827fffffffffffffffffffffffffffffffffffffffffffffffffffffffffffffffff038211156124f9576124f861247f565b5b828201905092915050565b7f496e697469616c697a61626c653a20636f6e747261637420697320616c72656160008201527f647920696e697469616c697a6564000000000000000000000000000000000000602082015250565b6000612560602e83611d03565b915061256b82612504565b604082019050919050565b6000602082019050818103600083015261258f81612553565b9050919050565b60008160011c9050919050565b6000808291508390505b60018511156125ed578086048111156125c9576125c861247f565b5b60018516156125d85780820291505b80810290506125e685612596565b94506125ad565b94509492505050565b60008261260657600190506126c2565b8161261457600090506126c2565b816001811461262a576002811461263457612663565b60019150506126c2565b60ff8411156126465761264561247f565b5b8360020a91508482111561265d5761265c61247f565b5b506126c2565b5060208310610133831016604e8410600b84101617156126985782820a9050838111156126935761269261247f565b5b6126c2565b6126a584848460016125a3565b925090508184048111156126bc576126bb61247f565b5b81810290505b9392505050565b60006126d482611e25565b91506126df83611f4e565b925061270c7fffffffffffffffffffffffffffffffffffffffffffffffffffffffffffffffff84846125f6565b905092915050565b600061271f82611e25565b915061272a83611e25565b9250817fffffffffffffffffffffffffffffffffffffffffffffffffffffffffffffffff04831182151516156127635761276261247f565b5b828202905092915050565b6000819050919050565b6000819050919050565b600061279d6127986127938461276e565b612778565b611f4e565b9050919050565b6127ad81612782565b82525050565b60006020820190506127c860008301846127a4565b92915050565b7f555550535570677261646561626c653a206d757374206e6f742062652063616c60008201527f6c6564207468726f7567682064656c656761746563616c6c0000000000000000602082015250565b600061282a603883611d03565b9150612835826127ce565b604082019050919050565b600060208201905081810360008301526128598161281d565b9050919050565b7f45524332303a2064656372656173656420616c6c6f77616e63652062656c6f7760008201527f207a65726f000000000000000000000000000000000000000000000000000000602082015250565b60006128bc602583611d03565b91506128c782612860565b604082019050919050565b600060208201905081810360008301526128eb816128af565b9050919050565b7f4f776e61626c653a206e6577206f776e657220697320746865207a65726f206160008201527f6464726573730000000000000000000000000000000000000000000000000000602082015250565b600061294e602683611d03565b9150612959826128f2565b604082019050919050565b6000602082019050818103600083015261297d81612941565b9050919050565b7f45524332303a20617070726f76652066726f6d20746865207a65726f2061646460008201527f7265737300000000000000000000000000000000000000000000000000000000602082015250565b60006129e0602483611d03565b91506129eb82612984565b604082019050919050565b60006020820190508181036000830152612a0f816129d3565b9050919050565b7f45524332303a20617070726f766520746f20746865207a65726f20616464726560008201527f7373000000000000000000000000000000000000000000000000000000000000602082015250565b6000612a72602283611d03565b9150612a7d82612a16565b604082019050919050565b60006020820190508181036000830152612aa181612a65565b9050919050565b7f45524332303a20696e73756666696369656e7420616c6c6f77616e6365000000600082015250565b6000612ade601d83611d03565b9150612ae982612aa8565b602082019050919050565b60006020820190508181036000830152612b0d81612ad1565b9050919050565b7f45524332303a207472616e736665722066726f6d20746865207a65726f20616460008201527f6472657373000000000000000000000000000000000000000000000000000000602082015250565b6000612b70602583611d03565b9150612b7b82612b14565b604082019050919050565b60006020820190508181036000830152612b9f81612b63565b9050919050565b7f45524332303a207472616e7366657220746f20746865207a65726f206164647260008201527f6573730000000000000000000000000000000000000000000000000000000000602082015250565b6000612c02602383611d03565b9150612c0d82612ba6565b604082019050919050565b60006020820190508181036000830152612c3181612bf5565b9050919050565b7f45524332303a207472616e7366657220616d6f756e742065786365656473206260008201527f616c616e63650000000000000000000000000000000000000000000000000000602082015250565b6000612c94602683611d03565b9150612c9f82612c38565b604082019050919050565b60006020820190508181036000830152612cc381612c87565b9050919050565b612cd38161225c565b8114612cde57600080fd5b50565b600081519050612cf081612cca565b92915050565b600060208284031215612d0c57612d0b611dbd565b5b6000612d1a84828501612ce1565b91505092915050565b7f45524331393637557067726164653a206e657720696d706c656d656e7461746960008201527f6f6e206973206e6f742055555053000000000000000000000000000000000000602082015250565b6000612d7f602e83611d03565b9150612d8a82612d23565b604082019050919050565b60006020820190508181036000830152612dae81612d72565b9050919050565b7f45524331393637557067726164653a20756e737570706f727465642070726f7860008201527f6961626c65555549440000000000000000000000000000000000000000000000602082015250565b6000612e11602983611d03565b9150612e1c82612db5565b604082019050919050565b60006020820190508181036000830152612e4081612e04565b9050919050565b7f496e697469616c697a61626c653a20636f6e7472616374206973206e6f74206960008201527f6e697469616c697a696e67000000000000000000000000000000000000000000602082015250565b6000612ea3602b83611d03565b9150612eae82612e47565b604082019050919050565b60006020820190508181036000830152612ed281612e96565b9050919050565b60006040820190508181036000830152612ef38185611d58565b90508181036020830152612f078184611d58565b90509392505050565b7f45524332303a206d696e7420746f20746865207a65726f206164647265737300600082015250565b6000612f46601f83611d03565b9150612f5182612f10565b602082019050919050565b60006020820190508181036000830152612f7581612f39565b9050919050565b7f4f776e61626c653a2063616c6c6572206973206e6f7420746865206f776e6572600082015250565b6000612fb2602083611d03565b9150612fbd82612f7c565b602082019050919050565b60006020820190508181036000830152612fe181612fa5565b9050919050565b7f455243313936373a206e657720696d706c656d656e746174696f6e206973206e60008201527f6f74206120636f6e747261637400000000000000000000000000000000000000602082015250565b6000613044602d83611d03565b915061304f82612fe8565b604082019050919050565b6000602082019050818103600083015261307381613037565b9050919050565b7f416464726573733a2064656c65676174652063616c6c20746f206e6f6e2d636f60008201527f6e74726163740000000000000000000000000000000000000000000000000000602082015250565b60006130d6602683611d03565b91506130e18261307a565b604082019050919050565b60006020820190508181036000830152613105816130c9565b9050919050565b600081519050919050565b600081905092915050565b600061312d8261310c565b6131378185613117565b9350613147818560208601611d14565b80840191505092915050565b600061315f8284613122565b91508190509291505056fe416464726573733a206c6f772d6c6576656c2064656c65676174652063616c6c206661696c6564a2646970667358221220e596582fb95659cac44af4261cbbedd1ef99b744a6eb1c9ac85ce09d5c816bf764736f6c634300080b0033",
  "linkReferences": {},
  "deployedLinkReferences": {}
}