{
  "_format": "hh-sol-artifact-1",
  "contractName": "TestClone",
  "sourceName": "contracts/TestClone.sol",
  "abi": [
    {
      "inputs": [
        {
          "internalType": "uint256",
          "name": "_cloneNumber",
          "type": "uint256"
        },
        {
          "internalType": "address",
          "name": "_account",
          "type": "address"
        }
      ],
      "name": "balanceOfClone",
      "outputs": [
        {
          "internalType": "uint256",
          "name": "",
          "type": "uint256"
        }
      ],
      "stateMutability": "view",
      "type": "function"
    },
    {
      "inputs": [],
      "name": "contractManager",
      "outputs": [
        {
          "internalType": "contract IContractManager",
          "name": "",
          "type": "address"
        }
      ],
      "stateMutability": "view",
      "type": "function"
    },
    {
      "inputs": [
        {
          "internalType": "uint256",
          "name": "_cloneNumber",
          "type": "uint256"
        }
      ],
      "name": "totalSupplyOfClone",
      "outputs": [
        {
          "internalType": "uint256",
          "name": "",
          "type": "uint256"
        }
      ],
      "stateMutability": "view",
      "type": "function"
    }
  ],
  "bytecode": "0x608060405234801561001057600080fd5b506107d2806100206000396000f3fe608060405234801561001057600080fd5b50600436106100415760003560e01c8063b39e12cf14610046578063b545577414610064578063f9eb343b14610094575b600080fd5b61004e6100c4565b60405161005b91906104df565b60405180910390f35b61007e60048036038101906100799190610573565b6100e8565b60405161008b91906105c2565b60405180910390f35b6100ae60048036038101906100a991906105dd565b610288565b6040516100bb91906105c2565b60405180910390f35b60008054906101000a900473ffffffffffffffffffffffffffffffffffffffff1681565b60006101286040518060400160405280601b81526020017f2b2b2b2b2b2b2b2b2b2b2b2b2b2b2b2b2b2b2b2b2b2b2b2b2b2b2b000000000081525061039e565b60008060009054906101000a900473ffffffffffffffffffffffffffffffffffffffff1673ffffffffffffffffffffffffffffffffffffffff1663ce8f8281856040518263ffffffff1660e01b815260040161018491906105c2565b602060405180830381865afa1580156101a1573d6000803e3d6000fd5b505050506040513d601f19601f820116820180604052508101906101c59190610648565b90506102056040518060400160405280602081526020017f212121212121212121212121212121212121212121212121212121212121212181525061039e565b8073ffffffffffffffffffffffffffffffffffffffff166370a08231846040518263ffffffff1660e01b815260040161023e9190610684565b602060405180830381865afa15801561025b573d6000803e3d6000fd5b505050506040513d601f19601f8201168201806040525081019061027f91906106b4565b91505092915050565b60008060008054906101000a900473ffffffffffffffffffffffffffffffffffffffff1673ffffffffffffffffffffffffffffffffffffffff1663ce8f8281846040518263ffffffff1660e01b81526004016102e491906105c2565b602060405180830381865afa158015610301573d6000803e3d6000fd5b505050506040513d601f19601f820116820180604052508101906103259190610648565b90508073ffffffffffffffffffffffffffffffffffffffff166318160ddd6040518163ffffffff1660e01b8152600401602060405180830381865afa158015610372573d6000803e3d6000fd5b505050506040513d601f19601f8201168201806040525081019061039691906106b4565b915050919050565b610434816040516024016103b2919061077a565b6040516020818303038152906040527f41304fac000000000000000000000000000000000000000000000000000000007bffffffffffffffffffffffffffffffffffffffffffffffffffffffff19166020820180517bffffffffffffffffffffffffffffffffffffffffffffffffffffffff8381831617835250505050610437565b50565b60008151905060006a636f6e736f6c652e6c6f679050602083016000808483855afa5050505050565b600073ffffffffffffffffffffffffffffffffffffffff82169050919050565b6000819050919050565b60006104a56104a061049b84610460565b610480565b610460565b9050919050565b60006104b78261048a565b9050919050565b60006104c9826104ac565b9050919050565b6104d9816104be565b82525050565b60006020820190506104f460008301846104d0565b92915050565b600080fd5b6000819050919050565b610512816104ff565b811461051d57600080fd5b50565b60008135905061052f81610509565b92915050565b600061054082610460565b9050919050565b61055081610535565b811461055b57600080fd5b50565b60008135905061056d81610547565b92915050565b6000806040838503121561058a576105896104fa565b5b600061059885828601610520565b92505060206105a98582860161055e565b9150509250929050565b6105bc816104ff565b82525050565b60006020820190506105d760008301846105b3565b92915050565b6000602082840312156105f3576105f26104fa565b5b600061060184828501610520565b91505092915050565b600061061582610535565b9050919050565b6106258161060a565b811461063057600080fd5b50565b6000815190506106428161061c565b92915050565b60006020828403121561065e5761065d6104fa565b5b600061066c84828501610633565b91505092915050565b61067e81610535565b82525050565b60006020820190506106996000830184610675565b92915050565b6000815190506106ae81610509565b92915050565b6000602082840312156106ca576106c96104fa565b5b60006106d88482850161069f565b91505092915050565b600081519050919050565b600082825260208201905092915050565b60005b8381101561071b578082015181840152602081019050610700565b8381111561072a576000848401525b50505050565b6000601f19601f8301169050919050565b600061074c826106e1565b61075681856106ec565b93506107668185602086016106fd565b61076f81610730565b840191505092915050565b600060208201905081810360008301526107948184610741565b90509291505056fea2646970667358221220cb3c46cd7da608db6c206a33cf639706670e225cb13196f7eea690ef4a8eba8564736f6c634300080b0033",
  "linkReferences": {},
  "deployedLinkReferences": {}
}